:020000040800F2
:10000000F8FF072411050008B7430508A5430508B4
:10001000B9430508C5430508D143050800000000A1
:10002000000000000000000000000000DD430508A3
:10003000DF43050800000000AD530508E55305083F
:1000400099020008BD440508CF440508D5440508B9
:10005000CDD1050899020008514405085744050808
:100060005D44050863440508694405086D77050883
:100070007D7705088D7705089D770508AD7705081C
:10008000BD770508CD77050899020008ED9E0508A3
:1000900099020008F39E0508990200086F440508BC
:1000A000E9440508EF440508F5440508FB44050844
:1000B000FF440508054505080B450508A145050849
:1000C000A7450508AD450508B3450508258705087A
:1000D000318705086B450508714505087745050812
:1000E00093440508C3440508000000003545050891
:1000F0003B450508534505084D450508DD770508CE
:100100009902000899DA05081145050899020008C6
:100110007D45050883450508294505082F4505083F
:10012000ED770508FD7705080D7805081D780508A9
:100130002D78050899020008C944050899020008AD
:1001400000000000000000000000000000000000AF
:100150003D7805084D7805085D780508894505084E
:100160009902000899020008990200089902000803
:100170009902000899020008990200080000000096
:1001800099020008990200088F4505089545050861
:100190003D870508990200089902000899020008A5
:1001A00099020008990200089902000899020008C3
:1001B00099020008990200089902000899020008B3
:1001C00099020008990200089902000899020008A3
:1001D000ED430508E143050899020008990200086B
:1001E0009902000899020008990200089902000883
:1001F0009902000899020008990200089902000873
:100200009902000899020008990200089902000862
:10021000594505085F450508654505089902000828
:1002200099020008990200089902000800000000E5
:1002300099020008990200080000000099020008D5
:100240009902000899020008990200089902000822
:100250009902000899020008990200089902000812
:100260009902000899020008990200089902000802
:1002700099020008990200089B450508000000004B
:100280009902000899020008990200080000000085
:080290000000000099020008C3
:10029800FEE70000254AD2F8883043F47003C2F81C
:1002A8008830234A136803F00F03062B05D8136818
:1002B80023F00F0343F0070313601E4B1A6842F044
:1002C80001021A6000221A611B4A19680A4018497B
:1002D8001A600A68120705D50A6822F00F0242F070
:1002E80007020A60002215499A61DA611A62996266
:1002F8001349D962134919635A639963DA63196414
:100308005A64196821F4802119601A660E4B1B681B
:100318006FF30F03B3F1005F03D20C4B0122C3F854
:1003280008210B4B43F2D2021A60704700ED00E03F
:1003380000200052004402587FEDF6EA0002020253
:100348000000FF01800201010010005C00800051E4
:10035800004000522DE9F041D0B020220021644D28
:100368000DAC05A844F088FD4C220021204644F03D
:1003780083FDC022002120A844F07EFDEB6823F015
:100388000403EB606B689804FCD546F03DFB42F231
:100398000203984250D9574BD3F8F42042F0020296
:1003A800C3F8F4200022D3F8F43003F002030193D9
:1003B800019B0292AA6942F44042AA61AA6902F426
:1003C800404202924C4AD16A41F00101D162D26A9C
:1003D80002F001020292029B454A93699904FCD5F6
:1003E8003F2101224FF480334FF005080591A021E9
:1003F80002254FF4806720466563C4E90023C4E9F9
:100408000B81002204214023A2640A93C4E910123C
:10041800C4E90E150321C4E90323CDE90612082215
:10042800C4E90955CDE90823CDE90B734AF08AFAE6
:10043800B8B1324853F04EFB002203922E4AD16ADB
:1004480021F00101D162D26A02F001020392AA6985
:1004580042F44042AA61AA6902F440420392039B13
:10046800BAE7F02319264FF48022CDE92A63002346
:10047800CDE920234FF40013CDE9300020A84293A2
:10048800CDE92C58CDE92E574BF002F808B11C489D
:10049800D0E7236B3021E26A05A87343B3FBF2F37C
:1004A800B3FBF1F201FB1232616B003AB3FBF1F1DD
:1004B80018BF012255F0B0F808B11248BAE70D4B41
:1004C8001A6842F080021A60D3F8F42042F002025F
:1004D800C3F8F420D3F8F43003F002030493049B28
:1004E80046F0A0FA4AF026FA50B0BDE8F08100BF05
:1004F800004802580044025800040058E006060864
:10050800F20606080C0706080446DFF82CD00B494B
:100518000B4A0C4B03E051F8040B42F8040B9A42C7
:10052800F9D300200849094A01E041F8040B914237
:10053800FBD3204653F056BCF8FF0724E4DF070836
:1005480000000024900400249004002464A40024E3
:1005580040F8044B40F8045B40F8046B40F8047B17
:1005680040F8048B40F8049B40F804AB40F804BB07
:1005780040F804CB40F804DB68467047024B5A69E0
:10058800026058610020704790040024024B5A69A9
:1005980012685A61704700BF90040024024B9A69A0
:1005A800C0E900219861704790040024044A9369C7
:1005B8001968916110B15A6818461047704700BF12
:1005C8009004002438B50446044DAB690BB1A3422E
:1005D80000D338BD0120FFF7E9FFF6E790040024B7
:1005E800C460056146618761C0F81C80C0F820902E
:1005F800C0F824A0C0F828B0C0F82CD080ED0C8B2F
:1006080080ED0E9B80ED10ABC0F808E0FFF7B6BF99
:10061800114A546908B50CB953F0D0FB6060204604
:10062800FFF7D0FF2046C468056946698769D0F896
:100638001C80D0F82090D0F824A0D0F828B0D0F8AA
:100648002CD090ED0C8B90ED0E9B90ED10ABD0F86C
:1006580008E00120704700BF9004002410B5002175
:10066800044600F0E7FA18B914B120460DF01EFB55
:1006780010BD002100F0DEBA10B50121044600F0DB
:10068800D9FA18B914B120460DF010FB10BDFFF7C8
:10069800E5BF10B501220C4600F0E8FB18B914B10B
:1006A80020460DF003FB10BD00F0E0BB00F0A0BB3E
:1006B800484308B50830FFF7DCFF40B1044A936AA5
:1006C80003B118600021C0E900139062083008BD2A
:1006D80090040024034678B153F8042C083812B16A
:1006E80053F8081C116053F8083C13B15A6000F025
:1006F8007FBB024B9A62FAE7704700BF9004002460
:100708002DE9F0414FF0030C00252A4C8646D4F819
:10071800AC02002101310EEB01039A0803F0030338
:10072800825C5B0042FA03F303F00303022BF1D06F
:10073800D4F8B802090100EB0E104FEA910E61B32C
:1007480000EB8E0E03681A0724D1D4F8B822991A40
:100758009A424FEA9116C1F301124FEA111119D8C2
:10076800D4F8BC7252009F4214D9D4F8AC720CFA77
:1007780002F8BB5D43FA02F243EA080302F00302FF
:10078800012A07D13F2DBB5504EB45030CD8013591
:10079800A3F8C81204307045D4D145B1013D04EB2B
:1007A8004503B3F8C8E2B2E7C4F8C422F2E7BDE8EB
:1007B800F08100BF9004002430B51C4C0122D4E91C
:1007C800AD53C01AC109C0F302134FEA101C9A4076
:1007D8006B5C4FEA9C0E23EA02036B548309D4F83E
:1007E800C0220325B2EB901FD4F8AC020CF0030230
:1007F80088BFC4F8C032C15C52000CF1010C05FA84
:1008080002F30CF0030221EA0301530000F80E1072
:100818004FEA9C0ED4F8AC0210F80E1041FA03F31C
:1008280003F00303022BE7D030BD00BF900400247F
:1008380021F00F01154A38B50B1A154C0546013B36
:10084800C4F8BC12C4F8AC02DB00A2FB03235B0AA9
:100858009A00C4F8B032A1EB8311013307321D446A
:10086800C4F8B81203EBD2020021C4F8B45244F021
:1008780003FB002301214FF0FF32C4F8C03223816B
:10088800A4F84813C4E9D33238BD00BFF32C23FAC7
:1008980090040024024A138901331381704700BF72
:1008A80090040024024A1389013B1381704700BF5A
:1008B80090040024024B1889003818BF01207047A3
:1008C80090040024F8B51B4D00222B8905F108047B
:1008D80005F50076C5F84C230133C5F8C4222B81F1
:1008E80054F8043F1A0719D1D5F8B822981A934238
:1008F8004FEA9011C0F301124FEA10100ED3D5F849
:10090800BC725200BB4209D2D5F8AC7217F801C0CC
:100918004CFA02F303F00303012B02D0B442DFD1F7
:10092800F8BD032393404CEA030C07F801C0FFF716
:10093800E7FEF3E79004002471B3F8B50F46051FEE
:100948000024164E55F8043F1A0719D1D6F8B822D4
:10095800981A9A424FEA901CC0F301124FEA1010FD
:100968000ED8D6F8BC125200994209D9D6F8ACE292
:100978001EF80C1041FA02F303F00303012B03D015
:100988000134A742DED1F8BD0323934019430EF882
:100998000C10FFF7B5FEF3E7704700BF9004002482
:1009A8002DE9F04F574E85B0D6F8B032D6F8C422AC
:1009B8009800C2B10025C6F8C452002876D0002499
:1009C800A30804F00302D6F8AC125200CB5C134122
:1009D80003F00303032B72D001348442F0D3D6F81A
:1009E800C432002BE7D1002860D04FF0000C032759
:1009F8004FF001094FF002086546D6F8ACE24FEA1D
:100A0800950A05F003041EF80A200EEB9501640010
:100A180042FA04F303F00303022B6ED0032B60D0D9
:100A2800012B40D1EB08D6F8B40205F0070B10F8FB
:100A380003E000EBD50C01934EFA0BF0C30728D561
:100A4800D6F8B8022901415800EB0510A9B102AA4D
:100A5800B2210CF0E7FADDE9013242B10DF086FB74
:100A6800DDE902010DF052FB0DF096FB019BD6F873
:100A7800B42202EB030C12F803E009FA0BFB2EEA8E
:100A88000B0E8CF800E0D6F8AC3203EB0A0113F831
:100A98000A2007FA04F44FF0010C22EA04040C704F
:100AA800D6F8B032980001358542A6D333890022A2
:100AB800013BC6F8C022338105B0BDE8F08F20465F
:100AC8000134FFF71DFED6F8B032B4EB830F4FEABE
:100AD8008300FFF475AFD6F8C432002B7FF46BAFF8
:100AE80081E708FA04F44FF0000C22EA04020EF839
:100AF8000A20D6F8B0329800D5E7BCF1000FD2D062
:100B0800C7E700BF90040024044B00211A89C3F8EA
:100B1800C41201321A81FFF743BF00BF90040024BA
:100B2800434B00212DE9F041D3E9AE420F460E4672
:100B3800121BD3E9AB540B4641604FEA840C0C46B8
:100B480081610260C0E90211C0E904119A0803F04A
:100B580003080133AA5C4FEA4808ACEB030E42FADB
:100B680008F2BEFA8EFE02F003024FEA5E1E012A68
:100B780049D0022A39D0A2BB01369C4501F10101B6
:100B88001746866022D09A0803F00308AA5C4FEA49
:100B9800480842FA08F202F00302012A02DDBEF117
:100BA800000FD3D0A2F10108012FB8FA88F84FEA54
:100BB800581824D0022F02D1426901324261826959
:100BC800BA4238BF8761B8F1000F02D1BEF1000FF9
:100BD800BCD0C2688A4238BFC1609C4519D0002188
:100BE800B4E79C45CFD10322D7E701349C4507F1F0
:100BF80001074460C7D1012F4FF00008DAD102691C
:100C080001320261DBE701349C45446007D0174696
:100C1800B9E724013601C0E90146BDE8F08107695A
:100C280001370761876907B982610127D1E700BFEA
:100C3800900400242DE9F84300F10F0636093FD04F
:100C48006A4C2389E3BBB4F848230D46E2BBD4F8C9
:100C5800C002D4F8B072B84232D24FF0010ED4F8C4
:100C6800ACC20138013F00216044CCF1010867445F
:100C780018E04A1C964255D913F00C0F37D18A1C3C
:100C8800964240F2A28013F0300F36D101329642DC
:100C980040F2A0803F2B23D8511C8E4240F29F8007
:100CA800B8420AD008EB000910F8013F9A07E0D0D3
:100CB80013F00C0F16D10122E2E7BEF1000F23D08A
:100CC80000231846BDE8F883D4E9D312914226D20E
:100CD800D4F8C002D4F8B072874215D99E46BEE750
:100CE8000021DDE713F0300F0CD10122CFE703F02C
:100CF8003002B2FA82F25209CCE73F2B8CBF0021B6
:100D08000121CDE70022C5E75AF048F9D4F8C0021E
:100D1800D4F8B0724FF0010EB842A0D3D0E75AF021
:100D28003DF994E74FEA8909A9EB0201012A01F18B
:100D3800010704D109F101039B08C4F8C03207F088
:100D4800030EB808012302314FEA4E0E894503FA13
:100D58000EF31CF800E043EA0E030CF8003012D33F
:100D68004FF0020E01F003038808D4F8ACC2013139
:100D78005B001CF8008089450EFA03F343EA080378
:100D88000CF80030EED2D4F84C331201D4F8B88203
:100D9800002133443E01C4F84C3308EB07131846CE
:100DA80044F06AF8EA0703468BD50022D4F8B40267
:100DB800F90807F0070748F806200122445CBA4002
:100DC800224342541846BDE8F8834FEA890909F1DD
:100DD8000109A9E74FEA890909F10209A4E74FEADD
:100DE80089090A4609F103099EE700BF9004002417
:100DF800034B1A8912B908B1FFF7DEBC704700BF70
:100E080090040024034610F00F001BD1164AD2F8B4
:100E1800B812994215D810B4D2F8BC429C420DD9E8
:100E28005B1AD2F8AC42C3F301119A091B09A25C00
:100E380049000A4102F00302012A05D05DF8044B7B
:100E4800704770470020704701301A18910802F067
:100E58000302615C520041FA02F202F00302022A24
:100E6800F2D00001EAE700BF900400242DE9F84F12
:100E78000E460546002800F0C580714C23890029DC
:100E880000F08B80002B40F08B80D4F8B812D4F897
:100E9800B072A0EB010806F10F014FEA870A4FEA8A
:100EA8001810090900F1010EBEEB870F80F0B08021
:100EB8009C46D4F8AC9201274FEA9E030EF0030B30
:100EC80019F803304FEA4B0B43FA0BF303F0030313
:100ED800022B2BD02BB90CF1010C0CEB07038B4226
:100EE80025D3B94255D05FD3BC448C4524D2002ABF
:100EF80056D0D4F8B4224FEAD81800F00703304689
:100F080012F80810194101F00101FFF793FE064697
:100F1800002845D03A01294643F06AFF238913B9CE
:100F28002846FFF749FC3046BDE8F88F01370EF137
:100F3800010EF245C0D1D4E7C21900EB010C62459D
:100F480020D202F0030390084FF0020E01325B003A
:100F580019F8006094450EFA03F343EA060309F80A
:100F680000300FD902F003039608D4F8AC0201321E
:100F78005B0010F8068062450EFA03F343EA0803A3
:100F88008355EFD1CA1B05EB07100021120143F06E
:100F980073FF2E463046BDE8F88F0BB9FFF70CFCFF
:100FA80000263046BDE8F88F46184FF0030C791A32
:100FB80006EA0C034FEA9608012906F101064FEAF2
:100FC800430319F808E00CFA03F32EEA030309F8BF
:100FD80008300FD0384406F00303B108D4F8AC72D7
:100FE80001365B007A5C86420CFA03F322EA0303BB
:100FF8007B54F0D1D4F8C0324345CAD92E46C4F840
:10100800C082C7E701463046BDE8F84FFFF712BE79
:101018000129BED021B10127002A7FF46AAFBFE7BA
:1010280000F003034FEA9818D4F8AC1203225B00CF
:101038009A4011F8083023EA020301F80830D9E78A
:101048009004002410B58AB0044603A8FFF768FD91
:10105800039A0949DDE904300090204600F03EFF7C
:101068002046069C079ADDE90831CDE900140349BA
:1010780000F034FF0AB010BDCC7F0608F47F0608E4
:101088002DE9F843DFF8589107464749D9F8B822BF
:1010980000F024FFD9F8B01289006DD00025DFF8E0
:1010A800448115F03F0633D005F003067600AB08FF
:1010B800D9F8AC22D35C334103F00303022B63D08D
:1010C800032B5FD0012B4AD1D9F8B8222B01D25873
:1010D80042455BD0354B9A425AD0354B9A425BD049
:1010E800344B9A4256D0344B9A4253D0334B9A429F
:1010F80054D0334B9A4251D0324B9A4252D0324B51
:101108009A424DD0314B9A4214BF68224D2227E0B3
:10111800A9421ED9D9F8AC022C4602E001348C420F
:1011280008D0A20804F00303825C5B0042FA03F3D0
:101138009B07F3D0621B7F2A0BD9920924493846B2
:1011480024F03F0500F0CAFED9F8B032B5EB830FA2
:1011580012D22A011F49384600F0C0FEA7E72E2206
:101168001D49384600F0BAFE0135D9F8B032B5EB62
:10117800830F4FEA830194D338461849BDE8F843F2
:1011880000F035BB6D22EBE73D22E9E75422E7E7A3
:101198004C22E5E75322E3E74422E1E74122DFE777
:1011A8004222DDE74622DBE73C800608D4C7060872
:1011B800A8BF06082CD006085CD00608B0BC0608F4
:1011C80024BD060850C40608E0C4060868C9060815
:1011D8005C80060878800608808006085880060823
:1011E80090040024B0D106080346054A506A1A68DC
:1011F80041688A4202D3521A1A6070470068F7E7BA
:1012080090040024014441F20553884204D398B263
:10121800012838BF0120704703EB431310F8012B56
:101228005340F2E7034B044A5A620022C3F80422EF
:10123800704700BF90040024780707082DE9F0479D
:1012480080460E46FFF7DEFF124B07465C6A0CB974
:1012580020461AE0D4F80C90002504F1180A4D45F0
:1012680001D12468F3E7236933F81530BB420ED166
:1012780063695B5DB3420AD1324641465AF825009C
:1012880043F026FE18B960682844BDE8F0870135A8
:10129800E5E700BF900400242DE9F84307460E4611
:1012A800FFF7CCFF002840F08D80FF2E03D9464978
:1012B80046480BF03AFF464D06F10108D5F80432CE
:1012C800ABB1D5E9821242448A422CD90246414444
:1012D8001846FFF7E9F9D5F804320446E0B90246A2
:1012E800D5F80C121846FFF7DFF9C5F80442444652
:1012F800802C38BF80242046FFF7BBF90346C5F889
:101308000402C0BB4046FFF7B4F90346C5F804021F
:1013180080BB40460CF0CAFCD5F808224244C5F808
:101328000822002BE3D0D5F80C22314638464FF07E
:1013380000099C184244C5F80C22FFF763FF3246A7
:1013480039468046204643F053FD04F80690686A03
:10135800D0E90272BA4227D37F000A2F38BF0A2782
:10136800C7EBC7001830FFF784F950B9C5F8040275
:101378003846CFE744460022C5F80842C5F80C2293
:10138800D1E700F11802696A02EB87020160026185
:1013980002EB470242614A68C968C0F80C900A44E7
:1013A800C0E901274A4668620169436921F8128049
:1013B800911D9E546B6A43F821405868D9681044BF
:1013C8000131D960BDE8F8832007060844C1060842
:1013D8009004002410B5044643F08CFD01462046D5
:1013E800BDE81040FFF758BF07B5019001A8FFF707
:1013F800FBFE019A036933F8120003B05DF804FBA1
:1014080007B5019001A8FFF7EFFE019B4269D05C88
:1014180003B05DF804FB07B5019001A8FFF7E4FEEF
:10142800019B063350F8230003B05DF804FB13B5A5
:10143800019001A80C46FFF7D7FE019B4269D25CD8
:10144800063350F82300226002B010BD2DE9F8439E
:101458001D46002307468846036016460B60136046
:101468002B60154BDFF854905C6A64B92B683268BE
:1014780013442B60BDE8F883336812F8010B01337D
:10148800034433600DE04C45F0D03B6801333B60CA
:10149800E268D8F8003013446269C8F80030E3689D
:1014A800D1188A42E8D32046FFF7ACFC2B682468A1
:1014B80003442B60D9E700BF90040024780707088D
:1014C800F8B50B4B0B4F5C6A0CB1BC4200D1F8BDB0
:1014D80004F11805E36805EB8306B54201D32468D7
:1014E800F2E755F8042B0449044800F0F7FCF4E748
:1014F80090040024780707082507060830B0060876
:1015080030B50023202511F8012F0AB9027030BD2B
:10151800120600F101041FD513B1202303702046E1
:101528000B78124A03F07F0363B9013A12F8013FBE
:101538000446013013F0800F0BD003F07F032370B3
:101548000123E0E712F9014B002CFBDA013BDBB287
:10155800EAE700F8013CE9E7012B04BF05702046E3
:101568000B7800F8013B0223CDE700BF2C070608E3
:1015780038B54368054619440368994210D9037B76
:101588001BB1002107480BF0D0FD01F11004806861
:1015980024F0070408342146FFF77BF82C60A86084
:1015A80038BD00BF44C1060870B504460E46114652
:1015B8001546FFF7DDFF31462A46D4E901301844C5
:1015C80043F046FC63682B44636070BD70B54668A1
:1015D8000446B14228BF31460D460121FFF7C8FF36
:1015E800A368681C721B5919184443F031FC6368DE
:1015F800A06801332844636070BD012938B538BF3D
:10160800012104460025084621606560FFF726F899
:101618002573A06038BD38B505460C460131FFF783
:10162800ECFF6C6038BD00230160C0E90132012382
:101638000373704738B514460546FFF7DEFF024BC3
:101648002560636038BD00BFB1150008037B10B585
:10165800044613B98068FFF729F80023A36010BD7A
:1016680038B505461020FEF7F9FF04462946FFF76E
:10167800C4FF204638BD10B5044648B1037B13B9F2
:101688008068FFF713F82046BDE81040FFF70EB852
:1016980010BD000038B5037B04460D461BB1002180
:1016A80006480BF042FD016880682944FEF7F1FF07
:1016B8002368A0601D441844256038BD44C106084D
:1016C80038B504460D46FFF753FFD4E901301D44F1
:1016D8001844656038BDD0E9002310B59A42044625
:1016E80002D10121FFF7D6FF0021D4E90132D154FC
:1016F800A06810BD10B50C460121FFF7E1FF04708A
:1017080010BD7F29F8B50C46CEB204D80121FFF7E9
:10171800D7FF0670F8BD06F03F06B1F5006FC1F3BC
:10172800871546F0800607D265F03F050221FFF7CE
:10173800C7FF46700570EDE705F03F05B1F5803F3E
:10174800C1F3073745F0800508D267F01F0703216A
:10175800FFF7B6FF457007708670DBE7A40C07F04B
:101768003F07042164F00F0467F07F07FFF7A8FF25
:10177800857004704770C670CCE738B505460C46CE
:10178800084643F0B7FB214602462846BDE83840E4
:10179800FFF70ABF10B51446FFF718FF047010BD15
:1017A80010B51446FFF712FF047010BD43688B4252
:1017B8002CBF591A00214160704738B504461546B8
:1017C800084662688A4203D929448A4201D860607F
:1017D80038BDA368521A1844194443F039FB6368AA
:1017E8005B1B6360F4E70846114644F0C1BA70B564
:1017F800054608460E4643F07DFB044620B10246E6
:101808006B68314628689847204670BD2DE9F74F28
:101818008A469DF8301091460D9A11F0DF0F064662
:10182800A2EB09023BD030293BD1244F4FF01008DE
:1018380013F0800539D002EBD2746510A2EB640472
:10184800002D39DDAB46D845424673683946A8BFF6
:101858005A46306801929847019AABEB020BBBF1EC
:10186800000FF0DCB9F1000F05D04D4473684A460B
:10187800514630689847002C0DDD2544A045C146E7
:1018880073683946A8BFA1463068A4EB09044A46E4
:101898009847002CF2DC284603B0BDE8F08F084FCB
:1018A800C4E70CAF4FF00108C2E713F0010401D1FF
:1018B8001546C5E71446D5E70025D3E738B006082E
:1018C80049B006082DE9F043064689B00020119D6D
:1018D8009DF84880139F8DF80F000AB381421ADAE9
:1018E8002D2249428DF80F20109A08AC0DF11009ED
:1018F800A2F10A008E46B1FBF3FC03FB1C12614601
:10190800092A8CBF1218303204F8012D4C450ED02C
:101918007345EFD90BE0A80727D52B228DF80F20A8
:101928000029E1D130230DF11F048DF81F3015F087
:1019380040099DF80F301CD023B301222B460DF12E
:101948000F013046013FCDE90082FFF75FFF814676
:1019580008AA2B4621463046121BCDE90087FFF71F
:1019680055FF484409B0BDE8F0836A07D8D520225E
:10197800D4E7002BECD004AA9442E9D904F8013C3E
:10198800013CE5E79946E3E72DE9F04F834691B03E
:10199800C8070D4691461E461A9C9DF86CA0DDE9C5
:1019A8001C870BD4A90703D129687B4B994205D022
:1019B80028460DF0EBF9450045F0010514F08103C8
:1019C80006D1BAF1300F03D1B845B8BFB8461F46A3
:1019D800284610F03AFB002818DBA20712D52B2363
:1019E8008DF820300DF12103E006F6B21CD5B9F1CF
:1019F800020F0DD13020194601F8020B701C5870E7
:101A08000B4611E0630701D52023E9E708ABEBE7B4
:101A1800B9F1080F60D130211970A10549BF06F14D
:101A28000E01013359700233002108AA14F0200F67
:101A38000CA81970A3EB020309904FF0100005934E
:101A480014BF2C230B46012F8DF81F10C8BF44F07C
:101A58004004029614F04002CDE90A01CDE90332B0
:101A680044D02B460BAA09A8CDE900910AA910F089
:101A7800C1F9037881462D2B06D18DF81F3000F16E
:101A880001090B9B013B0B93012F7EDD0B9D049BF2
:101A9800BD42B8BF3D462BB19DF81F3003B101359B
:101AA800059B1D44A84524F0010A6BDD14F00104D0
:101AB800A8EB050567D120230195224637490093F5
:101AC800584623462546FFF7A1FE0646049B544682
:101AD8004FF0300ABBB937E0B9F1100FA4D130206C
:101AE800194601F8020B06F1170088E708AB0BAAA4
:101AF8000AA909A8CDE900932B4610F07BF9814685
:101B0800C2E700252E469DF81F305BB10023012255
:101B18000DF11F01584608F1FF38CDE90032FFF7F3
:101B280075FE0644059B63B10023012208A95846A7
:101B3800CDE90032059AFFF769FE059B0644A8EB3C
:101B48000308012FD8BF474623460B9A49465846F3
:101B5800CDE900A7FFF75AFE06444DB120230F49EF
:101B680058460195009300231A46FFF74FFE064496
:101B780009980CAB984201D0FEF798FD304611B099
:101B8800BDE8F08F00250026A0E7049B002BB8D104
:101B98001D461E464746D7E7BCC60608D664060853
:101BA8002DE9F043164698468BB00746B2070A4619
:101BB80002A84FF0200154BFC6F380032B23DDF8A1
:101BC80048905CBF5B01DBB20093139B0AF08CF971
:101BD800F305044610D5431C1F2B0DD800F128022D
:101BE80000210DEB0204252204F8202C03F1280221
:101BF8001C466A4402F8201C16F040051DD09DF8CA
:101C080008302F2B4FF0000319D8012202A93846BB
:101C180009F1FF39013CCDE90032FFF7F7FD0DF17D
:101C280009010546334622463846CDE90089FFF7C3
:101C3800EDFD28440BB0BDE8F08302A9F2E702A944
:101C48001D46EFE72DE9F04F074689B014460025F9
:101C58004FF00A080B461E4613F8012B0AB1252A35
:101C6800F9D1B14207D2A6EB01097B6838684A4628
:101C78004D44984731460B78002B00F027810131FD
:101C880020234FF0000A084610F8012B32B12B2A06
:101C98002CD01FD8202A2CD0212A2DD04FF0000973
:101CA8000E4611F8012BA2F13000092827D92E2A57
:101CB80047D172782A2A27D000220E4611F8010B44
:101CC800A0F1300CBCF1090F21D808FB020BABF1D5
:101CD8003002F2E72D2A05D0302ADFD14AF0400A37
:101CE800134601E04AF0010A0146CCE74AF0020A2D
:101CF800FAE74AF0040AF7E74AF0080AF4E708FBAB
:101D08000922A2F13009CBE7023654F8042B22EA63
:101D1800E27B32786C2A08BF01363178002900F05E
:101D2800D580782906D857290ED8472956D8442966
:101D380000F2C0807B680122314638680135984737
:101D480062E04FF0FF3BE4E7A1F15802202AF1D806
:101D580001A050F822F000BF9D1E00083D1D00089C
:101D68003D1D00083D1D00083D1D00083D1D0008E3
:101D78003D1D00083D1D00083D1D00083D1D0008D3
:101D8800F91D00081B1E0008811E0008BD1E000862
:101D9800BD1E0008BD1E00083D1D00083D1D0008B1
:101DA8003D1D00083D1D00083D1D00083D1D0008A3
:101DB8003D1D00083D1D0008E91D00082F1E0008F4
:101DC8003D1D0008591E00083D1D00089D1E000805
:101DD8003D1D00083D1D00089D1E00085029A9D181
:101DE800CDF804A0CDE902396123009310235FE008
:101DF80054F8042BCDE9003953463AB10422354949
:101E08003846FFF703FD0544711C23E705223249D4
:101E1800F6E754F8042B07A98DF81C200122CDE918
:101E280000395346ECE707A954F8040B0493FFF76D
:101E3800FEFABBF1FF3F0146049B04D0079A934585
:101E480038BFCDF81CB0079ACDE900395346D7E71B
:101E580054F8041B05930846049143F04BF8BBF172
:101E6800FF3F0246DDE9041302D0584528BF5A4611
:101E7800CDE900395346C3E7CDE902396123012290
:101E8800CDF804A000930A2354F8041B3846FFF742
:101E980019FDB8E74A1C21F00F01CDF804A002F0A3
:101EA80006020F39CDE90239C9B2C2F11003009117
:101EB8000022E9E707345246384624F00704CDE902
:101EC800009BB4EC020BFFF76BFE9CE7284609B0B9
:101ED800BDE8F08F3B3B0608403B06080EB403B54F
:101EE80003AA52F8041B0192FFF7ACFE02B05DF89A
:101EF80004EB03B070470346007893F90020002AEA
:101F08000ADA00F07F004022104206D113F8012FB0
:101F180002F0C001802904D0704720EA020052086C
:101F2800F2E702F03F0242EA8010EFE7431C18464E
:101F38000133027802F0C002802AF8D070470346C5
:101F48000020994200D8704711F8012D02F0C00214
:101F5800802A18BF0130F4E7034601440020994263
:101F68001A4600D870471278013302F0C002802A5E
:101F780018BF0130F3E700007F289DBF024B185CB3
:101F8800C0F34000002070475AB006087F289DBF64
:101F9800024B185CC0F3C000002070475AB0060816
:101FA8007F289DBF024B185CC0F38000002070475B
:101FB8005AB006087F289DBF024B185CC0F38010FA
:101FC800002070475AB006087F2809D8064B1B5CCA
:101FD80013F00C0F06D1A0F15F0358425841704727
:101FE80000207047012070475AB006087F289DBF1F
:101FF800024B185CC0F30010002070475AB0060866
:102008007F289DBF024B185CC0F34010002070472A
:102018005AB00608024608B5FFF7E8FF02EB401081
:1020280008BD08B50246FFF7EBFF404220F01F004D
:10203800104408BD3038092884BF20F02000073834
:10204800704702460144002010B5E524914203D8A8
:10205800B0FA80F0400917E012F8013B30B103F004
:10206800C003802B11D10138C0B2EFE7BF2B09D9CB
:10207800F72B09D8DB0803F0060344FA03F303F04F
:102088000300E3E71B06E1D510BD0020FCE7023999
:1020980081420B4603D31A880239002AF8D002334A
:1020A800181A40107047B2EB131F70B504464FEA78
:1020B80013101BD901EB4001101A03F00F03264639
:1020C8000246012A01F102010CBF31F8025C51F805
:1020D800025C013A25FA03F526F8025BF1D104EB1C
:1020E800400434F8023C03B9013870BD0020FCE715
:1020F800F0B5059C0025121B2E46AC420FD101EB12
:102108004403174600EB4404411A9FB904EB420309
:1021180016B1023324F81260181A4010F0BD31F8D5
:10212800157033F815C067443E4420F81560360C26
:102138000135E2E71D88013F35445D522E0C02331C
:10214800E3E7F0B4049F00260D463446D11BB7429E
:102158000BD105EB47030A4600EB4707451B7AB945
:1021680007EB4101F0BCFFF792BF35F816C033F812
:1021780016206444A41A20F8164024140136E6E711
:102188001E88013A34445C5324140233E7E72DE9EE
:10219800F043079C0239DDF828E0154684464FF6DF
:1021A800FF78A4EB0209DDE9087655B900EB420196
:1021B8001FB10123023120F81230BDE8F043FFF7C8
:1021C80066BF31F8024F013D4444264405EB09043B
:1021D800A5422ABF33F8024B4FF6FF7444447444B7
:1021E80086EA040E360C17FA8EF74FEA144E2CF8CE
:1021F800027B3F0CD9E7022938B538BF02210446D3
:1022080080680D4618B12368B1EB930F07D96900B0
:10221800FEF73FFA2368A06065F39F03236038BD8B
:1022280038B504460C20FEF719FA054623682278CB
:10223800C3F39D0023F0030302F00102400013439F
:102248002B6063686B60FEF709FAA8602268A168D2
:10225800C2F39D02520042F0CBFD284638BD994298
:1022680010B511D313D800EB410002EB410209B9B4
:10227800084610BD30F8023D32F8024D1B1B002BFA
:1022880002DB04D10139F2E74FF0FF30F1E701201A
:10229800EFE710B5044638B18068FEF707FA204624
:1022A800BDE81040FEF702BA10BD70B50C46022119
:1022B8000546FFF7A0FF002C2B78B5BF01220022AE
:1022C8006142214662F30003AA682B70012388B299
:1022D8001446090C1E4622F8020B03F10103F6D13D
:1022E8006E60208070BD0023C0E9003383607047B2
:1022F80028B103789B0702D48068FEF7D7B97047E6
:1023080038B504460D464968FFF775FF2A782378E3
:10231800A06862F3000323706A68A96862605200CB
:10232800BDE8384042F064BD0A4629B901784260E8
:1023380062F3000101707047FFF7B7BF08B5FFF7F8
:10234800D2FFBDE80840FFF7EFBF920042F002025B
:1023580010B4026000225DF8044BC0E9012119465F
:10236800FFF7E2BFF8B514461D469DF81870042122
:102378000646FFF740FF22462B4627B1002D0CDA10
:10238800624265EB4503317867F300013170002143
:10239800716052EA030102D1F8BD0027F3E7D6E9DC
:1023A80001104C1C746020F81120120C42EA034200
:1023B8001B0CEEE72DE9F84353EC102B1E4615468F
:1023C80003788046F20F62F30003037047F6F07358
:1023D80013EA16420AD198F8003023F0010388F86E
:1023E80000300023C8F80430BDE8F8839A42F2D0E0
:1023F800C6F30A53A3F2FF34002CECDB04D101210D
:10240800BDE8F843FFF751BFA3F2EF37C6F3130651
:10241800332C4FEA271746F4801642DCC4F1340205
:10242800A4F11403C4F1140406FA03F3D54026FA00
:1024380004F4D6401D4325430024A14639464046AE
:10244800FFF7D9FEC8F80470B9F1000F06D04FEABB
:1024580049020021D8F8080042F00EFDA4B105FA9F
:1024680004F2D8F8083023F81920C4F11003103406
:1024780009F10109A3F12002DD4006FA04F426FA65
:1024880002F2DE40254315434B469F42ACD0D8F8B4
:10249800082022F813502D0C013345EA0645360C66
:1024A800F3E70C34A3F2334304F00F044FEA231983
:1024B800C4E72DE9F8438F18C2F35B0204460D46C2
:1024C800511C9846089EFFF796FE2378AC460022DA
:1024D8001FFA86FE68F300032370BC4560466260FD
:1024E80002D3401BBDE8F88301780CF1010CA1F17F
:1024F8003003092B05D9A1F14103192B12D8A1F1F9
:102508003703B342EDD2A06890468146B8F1000F78
:102518000FD100EB420113B1023120F81230091A31
:102528004A10DAE7A1F16103192BDAD8A1F15703B0
:10253800E7E7B9F8001008F1FF380EFB013329F876
:10254800023B1B0CE2E7F8B5044615461E46C1B12E
:10255800531E4FF0FF371E44E90020460F3109098A
:10256800FFF749FE2378002123F0010361602370FF
:102578000B4645B9A06800EB4101FFF788FD606094
:10258800F8BD0127E8E700220F2B0ADC3078013D6F
:102598003E4400FA03F003F1080342EA000292B253
:1025A800F2D1A0680131103B00EB4100616020F8D6
:1025B800022CDEE738B5057804460B7805F00102F1
:1025C80003F00103981A08D1D1E90132D4E90110C6
:1025D800FFF745FEEB0748BF404238BD884210B5BB
:1025E800044601D0FFF78CFE237823F00103237003
:1025F80010BD884210B5044601D0FFF781FE63681C
:102608003BB12378C3F3000282F0010262F30003B6
:10261800237010BD88421FB5044601D0FFF770FE35
:10262800626862B901212046FFF7E5FD0123A2682F
:1026380013806360237843F00103237010E023784C
:10264800D9070FD523F00103237001230093A16854
:10265800ADF80E300DF10E030846FFF772FD60600D
:1026680004B010BD511C2046FFF7C5FD012300939F
:10267800ADF80E300DF10E03D4E901210846FFF73D
:1026880037FD6060D6E74B682DE9F04705460E46F2
:10269800144603B12AB931462846BDE8F047FFF78A
:1026A8002FBE02F10F014FEA111803EB1111FFF7CA
:1026B800A2FDA96814F00F044FF0000CD6E901231D
:1026C80008BF102408EB020703EB4203C4F110040F
:1026D80007F1004001384FEA400901EB400011467C
:1026E800864609BB6FF001032CFA04FCC8F1010807
:1026F80009F102095A43831820F802C04FEA480238
:1027080003EB48035242184642F0B6FB03464B44DB
:1027180017B133F8022D9AB12B786F60327862F3D3
:1027280000032B70BDE8F08733F802AD01394AEA9F
:102738000C0C2CFA04FA4FEA0C4C2EF802A9D0E73C
:10274800013FE5E72DE9FF410D4649680646144675
:1027580001B132B92946304604B0BDE8F041FFF76F
:10276800CFBDFFF748FDB768D5F8088023466A68EB
:1027780038464146FFF797FC33787060024629785F
:1027880061F300033370DB070AD500232009696869
:10279800ADF80E30994201D0834204D181420AD863
:1027A80004B0BDE8F08138F813509DB1012381428F
:1027B800ADF80E3012D904F00F04012338F81010C8
:1027C80003FA04F4013C214206D1BDF80E30002B77
:1027D800E6D003E00133DDE7ADF80E30012312B98E
:1027E8003B807360DCE7009339460DF10E033846F1
:1027F800FFF77EFC7060D3E72DE9F3410D4657687B
:10280800D1F8048014463B46926806464146A868BB
:10281800FFF725FD01301FBF23462C4647461D46BE
:1028280023782A785340DB0719D4791C3046FFF700
:10283800E2FC6B680093AB68B068D4E90121FFF74C
:1028480057FC70602378327800280CBF002303F00F
:10285800010363F30002327002B0BDE8F08139462B
:102868003046FFF7C8FC6B680093AB68B068D4E9E2
:102878000121FFF766FCE4E72DE9F3410F464E68B6
:10288800D2F8048014463146926843460546B86833
:10289800FFF7E5FC01301DBF23463C46B046012644
:1028A80018BF1F46237818BF00263A785340DB0725
:1028B80019D508F101012846FFF79DFC7B680093B4
:1028C800BB68A868D4E90121FFF712FC686018B159
:1028D800207800F0010070402B7860F300032B7023
:1028E80002B0BDE8F08141462846FFF784FC7B68CA
:1028F8000093BB68A868D4E90121FFF722FCE5E74B
:102908004B682DE9F04F0C465168154685B08B424F
:10291800064621BF1946254613461C462B78DB0779
:1029280022D4237813F001071ED1FFF764FCB068A6
:10293800AD683B46D4E9011C99420CD100EB41013A
:10294800FFF7A5FB00237060327863F30002327052
:1029580005B0BDE8F08F35F813203CF8134022404D
:1029680020F813200133E7E701313046FFF743FC35
:102978002F78237807F00109D5F804C087EA030106
:1029880047F30007B06803F0010AC94343F30003A3
:10299800A268834601F0010E41F300019BB289B29F
:1029A80000930291B9B267460191A968A1F10208A2
:1029B8006168A1EB0C0103918FB900EB4C01BEF1EA
:1029C800000F03D00123023120F81C30FFF75FFB12
:1029D800706022782B78C2F300021340B4E738F80D
:1029E800021F013F019B5940039B8944D9198F421B
:1029F80025BF32F8021B009B00995940029B8A446C
:102A080009EA0A014FEA1A4A4FEA194959401EFAD7
:102A180081F14FEA114E2BF8021BCDE72DE9F84F53
:102A28004B680D465168144606468B4221BF19462D
:102A38002C4613461D462378DB0731D42B7813F038
:102A480001072DD1FFF7D7FBA06864683B46D6F88D
:102A580008C0D5E9012EA41A9A4213D10CEB4203FF
:102A6800214600EB4202ACEB0000A1B903EB4403A2
:102A7800A3EB0C0358103378706061F300033370D4
:102A8800BDE8F88F30F813103EF8135029432CF89E
:102A980013100133E0E71588013915520232E4E7D3
:102AA80001313046FFF7A7FB27782B784FF0010A52
:102AB800616807F00108B06803F00109A46843F3EE
:102AC800000383469BB2A4F1020CD5E901E247F367
:102AD80000050F46AEEB010EADB22FB900EB410178
:102AE800FFF7D5FA0121C6E73CF8024F013F6C40D9
:102AF800A0440EEB0704A7422ABF32F8024B1C463B
:102B08005C40A14448EA09044FEA19494FEA1848C9
:102B1800E4431AFA84F44FEA144A2BF8024BDCE730
:102B28004B68F0B50D465168144685B08B42064691
:102B380021BF194613462C461D4627782B785F403F
:102B480017F0010736D1FFF756FBB068D4E9012129
:102B5800247814F00104D5E9015324D1521BA5426D
:102B680012D101EB4503144600EB4505411AACB9F7
:102B780005EB4201FFF78BFA00273378706067F3A3
:102B88000003337005B0F0BD31F8147033F814C089
:102B980087EA0C0720F814700134E0E71F88013C2D
:102BA8005F520233E3E7CDE90277CDE90057FFF73B
:102BB800EEFAE1E701310127FFF71DFB2B78DB4334
:102BC80003F00103039323780197DB4303F0010328
:102BD80002936B680093AB68B068D4E90121FFF7F2
:102BE800D6FACAE74B682DE9F04F044685B00E4681
:102BF80015460BB1536843B9237823F001032370BA
:102C08000023636005B0BDE8F08F81422DD1FFF746
:102C180007FBA542064607462ED06B68204671681A
:102C28001944FFF7E8FA22680021A068C2F39D0260
:102C3800520042F021F9B368D4F808E00022D6F82F
:102C480004900193F446AB680EEB490811460293D1
:102C58006B680393039B934233D0ACF10200DDF819
:102C680004B00023CDF800901AE0824206D1FFF7A5
:102C7800D7FA05460746D0E70546CEE70027CCE752
:102C880030F802AF53443BF802AB1946029B33F8C5
:102C9800123003FB0A130099038001391B0C0091C1
:102CA80000990029ECD14146881C13B10146A8F8C7
:102CB8000030A1EB0E010CF1020C013280464910E4
:102CC800C8E7616038462A7833785340227863F33E
:102CD8000002227005B0BDE8F04FFFF7DABA4B6882
:102CE80070B50546144613B11378DA0706D52B7864
:102CF80023F001032B7000236B6070BD636823B958
:102D08000121BDE87040FFF7D0BA0846FFF788FAFE
:102D180006462046FFF784FA012104462846FFF7B5
:102D2800C4FA636883B1A3681B88DB0704D53246FD
:102D380029462846FFF756FF0123D4E90121084612
:102D4800FFF7B1F9606038B93046FFF7A2FA2046BC
:102D5800BDE87040FFF79DBA324631463046FFF76E
:102D680041FFDEE72DE9F04F0C4651688FB09346DE
:102D7800013105460393FFF73EFADBF804200021F2
:102D8800A86800260132520042F076F82B786E606F
:102D9800204623F001032B70DBF804100131FFF704
:102DA8002AFA59462046FFF7ABFA039BD4F8089055
:102DB800D4F8048048464146D3E9013702933A469D
:102DC800AB680493029BFFF74AFA002833D101232A
:102DD800049A606013806B6023786268002A0CBFD5
:102DE800002103F0010161F30003039923709BF8AC
:102DF800003009784B40DB0740F1FD806B6829788B
:102E0800003B18BF012363F300012970002A00F07A
:102E1800F2800BA84FF0FF31FFF790FA0BAA294672
:102E28002846FFF7E9FC039A214620460FB0BDE883
:102E3800F04FFFF7E1BC013001D16E60CCE7029B97
:102E480003F100423346013A4FEA420A37F81210BA
:102E58000E0403F101004ED509EB48014FF0000CB8
:102E68009BB208F101000191CE46C3F11006023170
:102E780029F818C0059660608E4540D337F81220AF
:102E88009A400592029A012A09D907EB0A02C3F16E
:102E9800100132F8022CCA40059911430591029A93
:102EA800801A049A686000F10040013802EB400281
:102EB80007920AF102020992BA1E0892D4F804A0F5
:102EC800029A524529D30AF1004A0022C3F11000A0
:102ED8000AF1FF3A09EB4A0AD14573D96FF000416C
:102EE8006B682BB15A18049830F81220002A73D056
:102EF8006FF0004175E04900034689B2A8E7BEF8C3
:102F0800008008FA03F64CEA060C059E28FA06F833
:102F18002EF802CB1FFA88FCAEE7019A01981188B7
:102F280032F8022C42EA01420599B2FBF1F2099902
:102F3800411A0020069186460899069F0E46019977
:102F4800B9420DD809880844A8BB079921F8022975
:102F5800019A0791023A01920AF1FF326260ADE7E5
:102F680036F8021FB7F80080994018FA80F841EA4D
:102F78001E4E1FFA8EF151431FFA81FC090CA8EB73
:102F88000C0CC1EB204127F802CB01EB2C40D6E713
:102F980038F8021F994041EA1E4EBCF80010394427
:102FA80011FA8EF10F0C2CF8021B01996145EFD82C
:102FB8003844013AC8E70027DDF82080DDF818C05A
:102FC800BE46F2E7BAF8001041FA03F681403243F0
:102FD8002AF802298AB27FE7013B6B6080E7013B50
:102FE80063606368002B3FF4F7AE5A1839F8122073
:102FF800002AF4D0F0E60FB0BDE8F08FF0B51F4618
:103008004B6885B004460D4616464BB11378DA076F
:1030180006D47B68012B0BD1BB681B88012B07D119
:10302800237823F0010323700023636005B0F0BD0B
:1030380001212046FFF739F97368002BF6D028469E
:10304800FFF7EEF805463046FFF7EAF80023064694
:103058000393CDE901337368B3B1B3681B88DB0709
:103068000AD52A4621462046FFF7BCFD3B462246A4
:10307800214601A8FFF776FE0123D6E9012108467B
:10308800FFF711F8706058B901A8FFF731F9284621
:10309800FFF7FFF8304605B0BDE8F040FFF7F9B894
:1030A8002A4629462846FFF79DFD3B462A462946DB
:1030B80001A8FFF757FECEE7D0E90121034600201B
:1030C80001EB420210B5914204D31B78DB0748BFDD
:1030D800404210BD32F8024D44EA0040F3E730B5F3
:1030E800D0E90124002304EB4202944206D302787B
:1030F8000120D20748BF5B420B6030BDB3F5004FDB
:1031080004D232F8025D45EA0343EEE70020F4E713
:103118002DE9F0470546D1B1981800264FF0010C6B
:1031280003EB02093746D5E90184A4F1020EB8F190
:10313800000F0ED1B9B3C21A18462B7813F0010F3D
:10314800BDE8F04714BFFF21002141F095BE1846A5
:10315800E3E73EF8024F103744EA064695F800A028
:10316800072F0AF0010A02DC08F1FF38DFE7B4B2E2
:10317800BAF1000F06D0E4435CFA84FC1FFA8CF421
:10318800CCF3072CE4B249B100F1FF3A00F8014C46
:1031980053450BD0083F360A5046DFE782460AF807
:1031A800014BCA45F5E713441A1AC6E7BDE8F0878C
:1031B800D0E901329FED0C0B9FED0D6B02EB430341
:1031C8009A4205D30378DB0748BFB1EE400B70473E
:1031D80033F8021D07EE101AB8EEC77BA0EE067B87
:1031E800B0EE470BECE700BF000000000000000055
:1031F800000000000000F0402DE9F84F44688146C7
:103208008A4615461E469DF828B00B9F9CB982B188
:10321800551E3A4615F8011F134639B930221A705F
:10322800002203F8012FD81BBDE8F88F02F8011B14
:10323800F0E73B46F2E764002046FDF70FFA8046C8
:103248002246D9F8081041F0D3FD3A463B4608EB30
:103258000401A6F13A008C1E0026A045A4462CD9EC
:1032680030361C46392E88BF361804F8016B46469E
:10327800B142B4462CD8BBF1000F40D14046FDF70F
:1032880015FA5DB1284641F035FE2A18611E13462D
:10329800AB4236D8954288BF0020044499F80030E4
:1032A800DB0744BF2D2304F8013B3B46621E9A42CC
:1032B8002CD80023E01B2370B6E7BCF800C04CEA0A
:1032C8000646B6FBFAFC0AFB1C6624F802C9C4E7EA
:1032D800BCF800C00236BCF1000FC9D0BBF1000F2A
:1032E8000BD00026A4EB020CBCF1030F02BF9C1C00
:1032F80083F801B02246002EC0D12346ABE7012651
:10330800F0E713F8016D01F8016FC1E7197810783B
:1033180003F8010B02F80119C9E7D0E90232934218
:103328003DBF5A1C826018784FF0FF307047036821
:1033380010B5044613B14068FDF7B8F92046BDE85A
:103348001040FDF7B3B90000F8B50C461F46164605
:1033580005461020FDF782F9054B8460C0E900742A
:103368003444C4606B60034B2860AB60F8BD00BF99
:10337800233300083733000802690A2A10B50446C7
:1033880035D1836A013383620123A269E3626369E9
:103398006261226F2361002A31D0616E8A423BBF8D
:1033A800501CA16E0022206738BF8A5CA2613BB91D
:1033B800E26963662261226A23676261626AA261C6
:1033C80063690D2B08D10A22A3699342626103D174
:1033D800D4E901039847A061A369013306D1636961
:1033E8005A1C03D00A2B1CBF0A23A36110BDC36A51
:1033F800092A04BF073323F007030133C5E7D4E9DB
:1034080001039847A061DBE701690246272901D03B
:10341800222912D1012024E05369272BFAD0222B2C
:10342800F8D0722914D1662B16D190692728F1D0CB
:10343800A0F12203584258417047A1F162001328B5
:1034480004D8084B034113F00100E5D00020704771
:10345800662904D1722B00E0622B02D1E5E76229CC
:10346800F8D07047EEFFF6FF70B504460D4600260B
:103478002069431C01D1304670BD0A2808D115B116
:10348800636B002BF7D020460126FFF775FFEFE7A7
:10349800FEF772FD18B12046FFF76EFFE8E72369D3
:1034A800232B08D12046FFF767FF23695A1CDFD07A
:1034B8000A2BF7D1DCE75C2BDDD163690A2BDAD163
:1034C8002046FFF759FFE6E7436E2DE9F04F044623
:1034D80085B0A3B1036F93B929216030FEF70AF9CB
:1034E8002369E36163692362A3696362A36E1A783F
:1034F80022615A7862619B78A361032323670021C4
:1035080020466165FFF7B0FF266BA36AE56A002EC7
:103518006364A56407DA0823013684F84C3026630F
:1035280005B0BDE8F08F04D00723013E84F84C3085
:10353800F5E790B3636B83BB0623013D84F84C30F9
:10354800D4E90F3003F10042013A30F812209542D5
:10355800E6D009D8013B30F81320954218D3DFD0C4
:10356800022384F84C30DBE7A16B8B4207D3083188
:103578004900FDF78EF8A36B20640833A363E36B5F
:103588005A1CE26320F81350236B01332363C7E707
:10359800226BE363013A2263DCE725696F1C01D1E2
:1035A8000023DEE72046FFF72FFF0746002800F03C
:1035B800B381002384F84C302369722B68D059D822
:1035C800622B5ED0662B6AD0B1460C2300254FF0E3
:1035D800000894F84C20002A74D184F84C30B9F1D2
:1035E800000F08D02046FFF7C7FEB9F1020F02D13D
:1035F8002046FFF7C1FE23692046222B0CBF222359
:1036080027230093FFF7B8FE2369009A93425CD101
:1036180063699A4259D120464FF00309FFF7ACFE7F
:103628002046FFF7A9FE25B19F4904F16000FEF787
:10363800A4F804F16002002304F1500A0192216900
:10364800481C00F06381B9F1010F02D10A2900F08A
:103658005D814B453CD3194604F15000FEF7A6F8AE
:1036680001212046FFF700FF2046FFF7CDFE002886
:10367800A2D155E7A3F17505D5F1000949EB050974
:10368800A3E76369722B12D04FF001090D239DE760
:103698006369622B0BD0662B0FD1052361E7636941
:1036A800722BFAD03D464FF001090C238FE7B8463C
:1036B8004FF002090D2300258BE7B8464FF00109AA
:1036C8000C23F8E79A428AD02AE74FF00109AAE7C3
:1036D800009A8A4216D015B121697B291FD05C292E
:1036E80040F0118120460291FFF746FED4F810B051
:1036F8000299B8F1000F5FD004F15000FEF701F80D
:103708005946B4E00133009950460293FDF7F9FF9A
:10371800029B20460293FFF72FFE029B8FE720466D
:10372800FFF72AFE21697B290AD15046FDF7E2FFFF
:103738002046FFF721FE7B215046FDF7DBFFCBE754
:1037480028210198FDF7D6FFD4F864B0002221693A
:10375800481C04D0E2B93A2901D07D2918D1D4E90E
:103768001921881810F8010C3D2808D1A2EB0B028A
:1037780059445046FDF718FF636E013B6366019894
:103788002921FDF7B7FF2C210198FDF7B3FFD2E7F8
:1037980021F020005B280AD10132C9B201980292B7
:1037A800FDF7A8FF2046FFF7E7FD029ACFE75D285F
:1037B80008BF02F1FF32F0E7BBF1780F09D8BBF17F
:1037C8005B0F08D8BBF1220F44D023D8BBF10A0FF6
:1037D8004FD05C2190E7ABF15C021C2A68D8DFE887
:1037E80002F0396767676786266767672E676767C6
:1037F800676767672A6767670F6728302C674A001B
:103808000D2194F84C300C2B73D104F15000FDF7C6
:1038180078FF2EE0BBF1550F13D0DAD8BBF1270F94
:1038280018D0BBF14E0F43D120480AF035FC0821CF
:10383800E7E70921E5E70A21E3E70B21E1E70C21A6
:10384800DFE794F84C200D2A06D15C2104F15000E2
:10385800FDF757FF5946D4E7BBF1750F14BF4FF07A
:10386800080B4FF0040B0021BBF1010B06D24B1CD7
:1038780036D100234DE74FF0020BF4E720460291C2
:10388800FFF77AFD226910460392FEF793FB0028A2
:1038980000F056810299039A090110460291FEF739
:1038A800C9FB02990144DFE78B3B0608943B0608F5
:1038B800ABF1300107298CD84FF0030B08E0204604
:1038C8000291FFF759FD22690299303A02EBC101D2
:1038D8006269303A072ACAD8BBF1010BEFD1C6E7B3
:1038E800B1F5881F8DD3012384F84C30C1E7072137
:1038F80087E7FF29F7D80D2BF5D1C9B204F150009D
:10390800FDF7F8FEB5E7C9B25046F9E74B453CBFAD
:10391800032284F84C209EE62846FEF737FB2169EF
:10392800D8B95F2919D07F2917D80846FEF738FB80
:10393800002856D123692E2B4ED00026834D2F7890
:103948001FB12369BB4240F0A4802046FFF714FD55
:10395800002F40F0A680012303E6092304F1500557
:10396800C9B284F84C302846FDF7C4FE2046FFF75C
:1039780003FD2069421C1BD12846754FFDF7ABFE9D
:103988000025064657F8041B304641F0C1FA0028C6
:103998001CD10F35EDB2122D84F84C507FF4C0AD18
:1039A8006C4BD3F81032002B14BF0F231123D8E52A
:1039B800FEF7ECFA40B920695F2805D07F2803D8C4
:1039C800FEF7EEFA0028D7D0217CCCE7FFF6A8ADA9
:1039D8000135242DD6D1A3E56069FEF7E1FA002868
:1039E800ABD021692E292AD10B2384F84C3000252D
:1039F80004F150060B273046FDF783FE2046FFF7FB
:103A0800BBFC2069431C3FF48BAD4DBB20F0200369
:103A1800452B25D16521304684F84C70FDF771FEA1
:103A28002046FFF7A9FC21692B2901D02D29E8D1CF
:103A38003046FDF766FE2046FFF79EFCE1E70A23C5
:103A4800302984F84C30D2D1636943F02003623BBB
:103A5800162BCCD8404DDD4015F00105C8D1C6E77E
:103A6800FEF794FA28B121692E290DD184F84C70FB
:103A7800DEE72069FEF794FA0028F4D123692E2B9B
:103A8800F1D05F2BD7D04BE521F020034A2BCFD1C3
:103A9800ECE7652F01D0632F00D1013501360135E0
:103AA8004DE7212F08D123693D2B7FF454AF2046E1
:103AB800FFF762FC3A2354E52E2F0FD123692E2BF2
:103AC80002D163692E2B01D05D234AE52046FFF71A
:103AD80053FC2046FFF750FC0E2342E503353346DE
:103AE80015F8027C632F18D0652F16D01B4AD35CBB
:103AF80084F84C30553BDBB2052B3FF611AD012263
:103B080002FA03F313F02A0F17D113F0150F3FF43D
:103B180007AD636B1344636302E515F8012C0136A6
:103B28002169914207D12046FFF726FC3346652FCD
:103B3800DCD00235D4E7632FFAE7636B013BEAE791
:103B48000123014684F84C305BE600BF463B06087B
:103B5800DCB0060890040024012040006CB106087F
:103B68007FB501AD0646742085E80E00FCF776FDAA
:103B78000446034695E8070043F8046B002583E8EC
:103B8800070001236FF001021420C4E90A320A2257
:103B9800C4E90C55C4E90E23FCF760FD202120641C
:103BA80004F15000FDF729FD294604F16000FDF7F6
:103BB80024FD236C20461D802561C4E90555FFF7C7
:103BC800DBFB2046FFF7D8FB2046FFF7D5FB204656
:103BD800FFF77AFCA36C2046012B1CBF072384F84F
:103BE8004C3004B070BD30B585B0054601AC2046F8
:103BF800FFF7AAFB284694E80E00FFF7B1FF05B0CF
:103C080030BD30B585B00546014601AC204620F0F0
:103C180009FB2846FDF7DEFB94E80E00FFF7A0FF3E
:103C280005B030BD10B5044690B1C36840689847E8
:103C380004F15000FDF70AFD04F16000FDF706FDF0
:103C4800206CFCF733FD2046BDE81040FCF72EBD84
:103C580010BDD0E90432013B036152F823007047DC
:103C6800036942695B1A013B52F823007047F8B5B3
:103C7800446A06460D46B4B1D4E900030B448342B6
:103C880022D90831002201442046FCF70DFD0246E6
:103C9800B8B9616820460831FCF706FD63682360FF
:103CA800336A63603462802D2F4638BF802707F15E
:103CB8000800FCF7D3FC00230760044643607062E9
:103CC80002E023682B44236060680834054444F804
:103CD800045C2044F8BD38B50D460C211446FFF7A6
:103CE800C6FF4FF49D720560C0E9012438BD38B5A0
:103CF800D0E9033204460D469A4208D3103340698E
:103D08009900FCF7C6FCE36860611033E360D4E90E
:103D18000432591C216142F8235038BDF8B50446D5
:103D28001D460F461646D0E90003834208D31030DB
:103D3800C100A068FCF7ADFC2368A06010332360C5
:103D4800D4E90103421C626003EBC00253F830104F
:103D580067F3170143F83010D6705560F8BD10B4FA
:103D68008469CAB20023616C5DF8044BFFF7D6BFC3
:103D780010F001021CD110F003030CD000F00F0367
:103D8800062B15D00A2B11D100090E3803288CBF39
:103D980000200120704770B102793A2A08D02D2AF4
:103DA80008D18068B0FA80F0400970471046704723
:103DB8000120704718467047C20702D540F001003D
:103DC8007047830710D0030900F00F00062803D1BD
:103DD800D80040F002007047A3F10F00022809D86C
:103DE800064B53F82000704730B103793A2B03D1C2
:103DF80080687047024870470248704798B10608C3
:103E080034CD060874D1060838B505460C46FFF7C8
:103E1800AFFF38B12846FFF7CFFF0BF003F9031BBC
:103E28005842584138BD2DE9F0410F460546144621
:103E3800114689B9204612F00FFB014600F1080827
:103E4800A4B90A4628463946FFF745FF01462846E1
:103E5800FFF74DFF012007E001392846FFF700FF73
:103E6800FFF786FF0028E4D1BDE8F0812846013C31
:103E7800FFF7EFFE0646FFF79FFF48F82400002EE5
:103E8800DED0B307DCD1686A00F108039E42D7D3BD
:103E9800426813449E42D3D273681B0A0233A2EBD2
:103EA80083024260CCE70000F7B5866905460F46F5
:103EB80096F84C20A2F10903042B52D8DFE803F04E
:103EC80003232B384C00D6E91510FDF7E5F9902FA0
:103ED80004460ED1C100002205F1280041F002017C
:103EE8000AF06CFC28B14268D3071CD542F00100E7
:103EF80002E0200140F002000146284603B0BDE878
:103F0800F040FFF7F4BE00223346D6E9151008F05A
:103F180069FA0246E8E7009600230122D6E915105F
:103F280008F0DEFA0246716C2846FFF7D4FEE3E794
:103F3800D6E915100A2906D8FDF7AEF930B1000107
:103F480040F00600D8E7FDF779F9F7E7D6E915213B
:103F5800064810F089FBE5E7D6E9151010F05AFC81
:103F6800E0E7120142F00A00C6E700BF5CD006088D
:103F780010F00102034604D040F001030B60012059
:103F8800704790B110F0030010D11A793A2A0ED177
:103F98009B6813F001000B60F1D19A0707D11868EC
:103FA800034BC31A58425841704770471046704730
:103FB800BCC606080021FFF727BF0121FFF724BF71
:103FC8002D2A2DE9F04F044685B0884616461D4631
:103FD8000BD10021FFF744FEC0B1870702D1037956
:103FE800922B13D005B0BDE8F08F922A2ED1002174
:103FF800FFF736FE014648B1880707D14F68FBB284
:10400800952B18D1013D2046FFF723FEA6F1230387
:10401800DFB2092F00F2F380092B00F2D780DFE826
:1040280013F0F400F400F4002D012D012D016801B6
:10403800F400D500AB01962BE8D127F0FF07204606
:10404800FFF707FE47F092074F60CBE7962A13D198
:104058000135D0E9012303EBC20313F8153C2D2BDE
:1040680040F0B5802A46FFF7DEFE002800F0AF805A
:104078006368023B6360B5E7A2F11E03012B61D9B7
:10408800202A00F08B80052AC0D10021FFF7E8FD27
:104098000746002800F09B8010F0030A05D143680A
:1040A80003F0FE03562B00F0928001212046FFF713
:1040B800D7FD00F00F03022B40F08980BAF1000F02
:1040C80040F085803B792C2B40F08180BB6803F061
:1040D8000F02022A7BD11B09482B78D1FB68002BE1
:1040E80075D09A0773D11A79302A70D1D3F808B0ED
:1040F8004FEA10195846FFF73BFE002840F012819E
:104108009B499C480CF00CFEA169054653463A6849
:1041180009680CF0DBFE2846FCF77AFA1E2E0AD155
:10412800FFF74BFF18BB3846FFF744FF00B9D346EB
:104138000BF1FF3A0BE0FFF73DFFC0B93846FFF738
:104148003CFFF3E705F1FF3A8DB1AB46A94609F10B
:10415800FF3920464946FFF783FD23696269074610
:10416800A3EB0B0342F82300B9F1000FD6D10021CD
:1041780051450ED16D1A012D3FF434AF362E7BD147
:104188002A4641462046FFF74EFE00287FF42AAF14
:104198001DE020460131FFF75CFDE9E70021FFF74C
:1041A8005FFD0746FFF706FF68B93846FFF705FFCA
:1041B80068B1FA212046FFF74CFD204605B0BDE85E
:1041C800F04FFFF794BD4FF48D71F3E72B26A91C30
:1041D80020468900FFF74BFD074646EA052300F114
:1041E8000801C0F800804360002D40F01981962E28
:1041F80003D139462046FFF77AFD3946DDE7922E8E
:1042080000F00481062EBBD0B8E7691E2046FFF7F0
:1042180027FD01A9FFF7ACFE70B3022FA5F1020933
:1042280096BFA6F10D072227FFB2B9F1000F09DAF0
:10423800002D40F0E080019AD30740F1E18042F080
:104248000101BAE749462046FFF70AFD02A9FFF730
:104258008FFE88B1222FDDF808A008D052460199B8
:10426800384609F1FF3909F03FFD0190DDE7504676
:104278000DF0EBFE0028F1DA332ECEE0691E204661
:10428800FFF7EEFC01A9FFF773FE0028F4D0A5F1B3
:104298000209B9F1000FCBDD09F1FF312046FFF724
:1042A800DFFC02A9FFF764FE0028E5D04946204656
:1042B800FFF7D6FCC0F307104328DDD04528DBD034
:1042C8002538DDF808A0C7B250460DF0BEFE1A2FFB
:1042D8000AD80028D0DB524601993846A9F10209CC
:1042E80009F002FD0190D4E71E2FF4D90028F2D17D
:1042F800C2E700212046FFF7B3FC01A9FFF738FE0B
:104308000028B9D001212046FFF7AAFCC0F3071006
:104318000199342816BF40380220C0B208F05EFF69
:10432800019085E75846FFF747FD07464FEAC9035E
:104338000A4604F1280043F002010AF03FFA4760F8
:104348004846FDF768F8037820465F2B08D100251A
:10435800FFF77FFC20460826A846FFF77AFC55E6BB
:10436800FFF777FC59462046FFF7C1FC2FE700BF4F
:10437800223C0608FCC0060801212046FFF770FC15
:1043880000F00F030746022B7FF476AF002120468A
:10439800FFF766FC00283FF46FAF10F003027FF4CC
:1043A8006BAF0379322B7FF467AF3909D0F80890E7
:1043B8001F48C90041F002010AF000FA00283FF442
:1043C8005BAF02AA4FEA1911406808F02BFE029B66
:1043D800002B3FF451AFD90707D49A077FF44CAFAD
:1043E8001968144A91427FF447AF039A002A7FF470
:1043F80043AF01931CE72046013DFFF72AFC17E76E
:1044080029462046FFF767FC0146D6E6D4E9012392
:1044180003EBC20313F8053C2D2B7FF4D8AEAFE6AF
:10442800013D2046FFF715FC41F82500DCE600BFFA
:10443800A4B10608BCC606080346006830B550B1EA
:1044480084070AD14468E5B28D4206D100F1080319
:10445800200A136030BD0346FBE70120F9E700009E
:104468002DE9F04F93B0002440230D4602904FF4FD
:1044780000700192CDE90534FCF7F0F8202307908D
:104488008020CDE90834FCF7E9F82146CDE90A0592
:104498000FA8CDE90D440AF05BF9019B002B48D029
:1044A800022B0CBF3F2222460023696C05A8AB4FA4
:1044B800FFF734FC0023069C002C00F05781013CD8
:1044C8000799A74801EBC40251F834100694D6782E
:1044D800C1F3170AA349632E526811F806B0A2491E
:1044E8000BF00F09895D88BF41F4807100EB41082A
:1044F8000BF0300110291ED020294BD0002B00F0E2
:104508000681B9F1020F40F0F580012A40D0002160
:104518001BF0010F02F1FF3306D0B8F80200384053
:10452800B0F5805F08BF5308012B40F0E180E1B18E
:10453800DEE03D22B8E702B1BBB108EB420825E056
:10454800C34638F8023B03EA0701B1F5805F0ED194
:1045580095F84C10C3F30B03994216D105A83146C0
:10456800FFF7A2FC2846FEF7AFFF0023A3E7531C82
:104578004B4504D23246514605A8FFF7CFFBBBF89E
:10458800001005A8FFF7EBFBEFE701329145D7D8FC
:10459800012390E773B102F10043013B38F813306F
:1045A8003B40B3F5405F21D1002105A80392FFF7F6
:1045B8009EFB039A08EB4204914527D8019B83B1DF
:1045C800052E0ED1002105A8FFF74AFB48B90121A5
:1045D80005A8FFF745FB830740D000F00F0002282D
:1045E80041D1002408EB4903A14656E0012ACFD95E
:1045F80095F84C30023B052B00F2CF80DFE813F032
:10460800DC00CD00DE00E100CD00CF00039434F8DB
:10461800021B01EA0700B0F5805F16D1C9B295F810
:104628004C0088420ED1092805D1314605A80392CD
:10463800FFF73AFC039A28460392FEF745FF039AD0
:104648000132B9E7002AA3D0D2E7531C51463246BB
:1046580005A8FFF763FB039B198892E70028C0D0E1
:1046680003793A2BBDD105A8FFF7F3FA05A8FFF7A0
:10467800F0FA00230822514605A8FFF7A1FC74E7C9
:1046880033F8022D02EA0701B1F5805F10D1D2B2EA
:10469800092A02D1013409F101099845F0D1B9F18B
:1046A800010F1CD11BF0400F19D00026314610E035
:1046B800214605A80393FFF7D3FA039B08B109F134
:1046C80001090134E9E7FFF7C4FA0136002818BFE9
:1046D8000146A64205A8F6D1FFF709FB45E71BF0FE
:1046E800800F04D00134002105A8FFF700FB234602
:1046F8003246C0E7012A3FF44BAF12F001013FF404
:1047080007AFB9F1030F7FF473AF012100E709EA9E
:10471800020303F0010338F8134004EA0701B1F576
:10472800805F13D1C4F30B0495F84C10A14202F139
:10473800010409D11BB9314605A8FFF7B5FB284686
:10474800FEF7C2FE2246E2E72246DAE6531C51464D
:10475800324605A8FFF7E2FA214612E700F0FFFF0C
:1047680090B2060818B60608E0B106080FA80AF0C5
:1047780003F80E9850B1416822460831FBF794FFC0
:104788000E9B5A681A600D9A5A600D9395F84C3032
:10479800002B7FF42DAF099BABB915490FE01549E4
:1047A80015480CF0BDFA044600236A6C29680CF021
:1047B8008DFB2046FBF72CFF1049F1E71049114803
:1047C800EFE71149FBE70A9B07981B680C93FBF777
:1047D8006DFF0A98FBF76AFF2846FFF723FA029B4A
:1047E800DDE90C0183E80300184613B0BDE8F08F3B
:1047F8008F3C06082E3C0608D8C00608403C060830
:10480800673C0608FCC006087A3C0608406810B5F4
:1048180000B910BD4468FBF749FF2046F8E70000DF
:10482800F8B5054630200E461746FBF730FF072D32
:1048380004460570C66001D0012D0FD1B368C3F3DB
:104848000F13A38208F000F8042320612020278397
:10485800E384FBF703FFE0622046F8BD014B5B5D94
:10486800EFE700BFC8B6060810B50446C06AFBF7F4
:104878001DFF2046BDE81040FBF718BF30B50022E9
:104888000446058D954201D8002030BDE36A03EB4C
:10489800C20043688B42F8D00132F3E770B5044692
:1048A8000D461646FFF7EAFFC0B9E38C228D9A42FF
:1048B80008D30633E06AD900FBF7EBFEE38CE0622D
:1048C8000633E384238DE26A591C02EBC300218579
:1048D80002F83360002345604370438070BD03468F
:1048E80018465B68002BFBD1FFF7C8BFF8B54468D2
:1048F8000E462CB9F8BD042BFCD105230370F9E74B
:10490800254628466D68002DF4D077683946FFF7AC
:10491800B5FF0028F5D00378043B022BEAD806251A
:104928003570002239462046FFF7B8FF0378002B80
:10493800E1D105706468F4E7036A1B8B012B1EBF85
:10494800C3685B18C3607047836A10B504469B6FE1
:10495800406A9847238B226A0133918C9BB2994213
:10496800238338BF938410BD038B013B10B50383A9
:104978000446836A406AD3F880309847204601216C
:10498800BDE81040FFF7D8BF2DE9F04F85B00446C9
:104998000D46984603921BB1CB8A43F00803CB829D
:1049A800039BEB83236ADA8A42F03002DA821B78AF
:1049B800002B46D1A36A2946039AD3F8B060434630
:1049C800606AB44605B0BDE8F04F6047DB6A03EBA8
:1049D800C60B13F83630053B012B1DD84FF00009E4
:1049E80017E0EB6A03EBC90213F83930062B0ED136
:1049F800DBF804105368994209D1A36A0AF1010A45
:104A0800BBF802201B69606A1F460023B84709F1FA
:104A180001092B8D4B45E4DC0136236A1A8DB2421D
:104A2800D4DCBAF1000FC5D0A36A5246CDF8008095
:104A38002946D3F8B460606A039BB04705B0BDE867
:104A4800F08F0026B246E8E7836A002110B50446D5
:104A5800D3F88430406A9847A36A606A10211B6BB8
:104A68009847A36A606A0121D3F8C830984720465E
:104A78000321BDE81040FFF75FBF38B5836A0446DD
:104A88000022406A5B6C9847A36A606AD3F8BC50FE
:104A980000231A461946A8472046BDE83840FFF7C4
:104AA800D3BF836A002289681B6D0909406A1847C9
:104AB800836A8968DB6B406A184710B50446084664
:104AC80011461A46FFF7ACFE236A43600023836051
:104AD800E3690BB9E06110BD1A469B68002BFBD156
:104AE8009060F8E72DE9F04F87B005460C4600AF17
:104AF80011B90121116013E011F0030619D10B79E6
:104B0800682B19D1CB681B0913608C68002CF0D076
:104B1800012604F00F03022B0DD12109002EE9D044
:104B2800AB6A0022686ADB6A98471C37BD46BDE855
:104B3800F08F0026EDE716B9A3681B091360A0469D
:104B480058F8043F4FEA132AC14608EB8A030AF1D2
:104B5800FF3BBB6059F8040F0009FCF751FCBB6828
:104B680083449945F6D10BF1070323F00703ADEB16
:104B7800030D0023E946C7F80CD058F8040F07F1D5
:104B880014013B600009FCF752FC7A69014648466B
:104B98007A6040F02DF93B687A6801334A449A45B7
:104BA80005D091464FF02E0209F8012BE5E759464A
:104BB800F868FCF771FBAB6A01460022DB6A686A99
:104BC8009847002EB1D00834BB689C42ADD054F849
:104BD800041F0022AB6A0909686A1B6D9847F3E74E
:104BE80031B101F003038268134304BF0B6883608B
:104BF80070472DE9F04107461E4659B111F00305EB
:104C080010D14B68D8B290420CD14FEA13280C1D32
:104C1800454501DBBDE8F08154F8041F38460135ED
:104C2800B047F5E738463346BDE8F041184700007D
:104C3800F8B50E4611461A460023044685780769DA
:104C4800837003610E4BFFF7D4FF6368BBB9618AB9
:104C580051B1228A42B9A36A606AD3F89C30984756
:104C6800A36A606A1B6C9847238A3146628A204689
:104C7800FFF78AFE003D276118BF0125A570F8BD22
:104C8800E154000870B5437805460C46012B06D15F
:104C9800036A0A4602211B8BFFF70FFF2061A268F7
:104CA800284621694C23BDE87040FFF7C1BF70B5A5
:104CB8001346427805460C46012A04D10A460721C4
:104CC800FFF7FBFEA061A66928464623E268314645
:104CD800FFF7AEFFB08A70BD024B9D228968FFF7CF
:104CE80088BF00BFED590008024B6B228968FFF7A7
:104CF80080BF00BF8975000838B543680D46044673
:104D080011464BB905480CF00BF82946606020465F
:104D1800BDE83840FFF764BF38BD00BFFCC00608D7
:104D2800014AFFF7E9BF00BF933C06080B79092B3E
:104D38004FF6FF7370B508BF858A044618BFC58A49
:104D48009D4202D1064AFFF7D7FF218B628BA36AE7
:104D58008A1A606A29465B6FBDE87040184700BF31
:104D6800A03C060838B5054679B101F00F03022BBF
:104D78000DD10C09204609F05DFB002806DA224611
:104D8800054906480CF062F86860002038BD044AFE
:104D9800FFF7B2FFF9E700BFB93C060890C0060864
:104DA800BE3C060870B5144605460E46127883B117
:104DB80032B1032A04D0104ABDE87040FFF79CBF07
:104DC800032661682670286AFFF789FD00B106701E
:104DD80070BD62B9012321462370006AFFF786FD82
:104DE8002378012BF4D1054A31462846E4E7062A00
:104DF800EED0034AE0E700BFCE3C0608DB3C0608DD
:104E0800E83C06082DE9F341437804460D46012B9A
:104E18001AD10B79102B0CBF4FF001084FF0000886
:104E280008D0036A1B782BB9114A02B0BDE8F041DB
:104E3800FFF762BF01AA6D2105F108000026FFF700
:104E4800FBFA0746B74202D102B0BDE8F081019BE8
:104E58000022206A53F8261001360909FFF71EFDC3
:104E68004346024629462046FFF79CFFEAE700BF73
:104E7800EF3C060842780B46012A02D1006A02F08C
:104E8800EDBD816A026A2031406A02F0F6BD4278BF
:104E98000B46012A02D1006AFFF700BD816A026A47
:104EA8001031406A02F0E9BD70B505460C4600298C
:104EB8002DD0CA0706D5836A49105B6B686ABDE8BE
:104EC800704018478B0716D004F00F040909022C0C
:104ED8000AD0062C0CD0062919D0836AC9B2406AB8
:104EE8001B6BBDE870401847BDE87040FFF7CFBFA7
:104EF800836A9B6BE2E7836A0968DB68406A9847C4
:104F08002279034B2146284653F82230D7E770BD53
:104F1800D0B606082DE9F74F05460C4616461F463B
:104F28002046FFF747F840B16EB9AB6A39469B6E29
:104F3800686A03B0BDE8F04F18472046FFF73DF810
:104F480020B1002EF1D103B0BDE8F08F002C48D07D
:104F5800A30746D163684FEA132BDBB21E2B18D187
:104F6800DEB1043404EB8B0B5C45ECD03B46324697
:104F780054F8041F2846FFF7CDFFF5E743465AF8D3
:104F8800041F2846019209F10109FFF7C3FF019A9E
:104F980011E01F2B1FD1002EE3D0D5F80C8004F1AF
:104FA800040A4FF0000986F0010208F10103EB60E2
:104FB8000BF1FF330093009B4B45DFDC0BF1010144
:104FC8003B463246284654F82110FFF7A3FFAB6A48
:104FD80041469B6AACE7202B03D1A46886F0010602
:104FE8009EE721462846FFF75FFFAB6A3A463146FF
:104FF800DB6E686A03B0BDE8F04F1847026A38B53F
:10500800127804460B46072A06D0022A04D0154A0D
:10501800BDE83840FFF770BE9D6885B9A36A1021C6
:10502800606A1B6B9847A36A0021606AD3F8C8308E
:10503800984720460121BDE83840FFF77DBCAB0703
:105048000BD12B79AF2B08D12046A968FFF72CFF8D
:105058002046BDE83840FFF7F7BC29462046FFF751
:1050680023FFE0E7053D060870B54378044615467A
:10507800CE68012B06D1036A0A4629461B8BFFF727
:105088001CFD70610023716920461A46FFF77CFCFD
:10509800F1682046FFF708FF062D05D1A36A002115
:1050A800606AD3F884309847A36A0121606AD3F80C
:1050B800B8500023AC461A46BDE87040604738B582
:1050C80005460C46C968FFF7EFFEA1682846BDE80B
:1050D8003840FFF7E9BE0B79342B70B504460D460E
:1050E80010D18968FFF7E0FEED68AD6885B9A36A5D
:1050F8001021606A1B6B9847A36A04220221D3F827
:105108009C301AE0836A1021406A1B6B9847ECE7D1
:10511800AB071FD12B799A2B13D1A36A1021606A90
:105128001B6B9847A9680029E6D02046FFF7BCFE0C
:10513800A36A04220321D3F89C30606ABDE870405A
:1051480018479B2B06D1A9682046FFF7ADFEEB68F0
:105158009968E8E729462046FFF7A6FECCE710B590
:1051680004468968FFF7A0FE0021A36A606ADB6C29
:10517800BDE81040184700002DE9F7438D68044644
:1051880016465DB9002A75D0836A02222946D3F8EB
:105198009C30606A03B0BDE8F043184715F0030778
:1051A80040F08A802B79372B13D132B1836A0222DF
:1051B8000121406AD3F89C30984720462946FFF7DA
:1051C80073FEA36A606AD3F8A03003B0BDE8F04369
:1051D80018479F2B70D1EB681A79A12A5AD1A221BE
:1051E80001AA03F10800FFF727F9A968804621B34F
:1051F8008B0722D10B79372B1FD136B1A36A411CFB
:105208000222606AD3F89C309847A9682046FFF7C5
:105218004BFEA36A4FF00109606AD3F8A0309847A3
:10522800474510D1B9F1000F24D1A36A0322791C94
:10523800606AD3F89C3098471CE020464FF000097C
:10524800FFF732FEECE7019B53F82710A9B18E0750
:1052580013D10E79A6F13700464246412046FFF7A2
:1052680023FEB9F1000F11D04EB9184A294620463D
:10527800FFF742FD03B0BDE8F0830026EEE7A36A1E
:10528800606AD3F8A03098470137C9E7002EFBD0F1
:105298000F4AEBE7AB685BB19A0709D11B79372B4B
:1052A80006D10422294603B0BDE8F043FFF7DCBE6F
:1052B800052229462046F6E729462046FFF7F4FD51
:1052C800A36A03220121D3F89C3062E7103D060847
:1052D800213D06080122FFF74FBF70B50D46C9688A
:1052E8000446FFF7E1FDA968A36AC1F30711606AE4
:1052F800D3F89430342916BF40390221C9B2BDE829
:1053080070401847F8B54F680C46002689683F0A70
:105318000C340546FFF7C8FD02360834B74200DCF6
:10532800F8BD54F8041C2846FFF7BEFD54F8081CC5
:10533800AB6A0909686AD3F898302539C9B2984721
:10534800EAE72DE9F0414E680C4601270546A6F12B
:105358000D08360A54F8081F5FFA88F8FFF7A4FD0D
:10536800B74201DBBDE8F08154F8041F2846FFF777
:105378009BFDAB6A4146686AD3F898300137984775
:10538800EEE72DE9F0414E680D4689680446360A75
:105398000127FFF789FD032E89BFD4F80C804FF051
:1053A800000808F10103E3607B1C9E4222DC032E07
:1053B80055D9E568606A6B1C2946E360A36A9B6E51
:1053C8009847A36A4146606A9B6A9847A36A012185
:1053D800606A9B689847A36A606A1B6E9847A36ACD
:1053E800606ADB6D9847A36A2946606A9B6ABDE8D4
:1053F800F0411847023729692046FFF755FDB742A3
:1054080007DAA36A606A5B6D9847A36A606A5B6E95
:105418009847EB68A26A03F00F01606AD2F89820F7
:105428000A2911D1C3F30713262B16BF353B0621D2
:10543800D9B29047B74205DAA36A42460021606AAA
:105448001B6F98470835AFE71979852901D13221B3
:10545800EFE79B680BB90721EBE73321E9E7BDE8E4
:10546800F08110B504468968FFF71EFD0321A36A81
:10547800606AD3F89430BDE8104018472DE9F0472A
:105488000D46D0F80C800446002755F8046F5FFAE3
:1054980086F9360AA9F11E03D3F1000949EB03097D
:1054A80008F10103C360B74206DBA36A4146606A9C
:1054B8009B6ABDE8F0471847013755F8041F204696
:1054C800FFF7F2FCB742F0DAA36A42464946606A3F
:1054D8001B6F9847E7E7000001F00F03022B70B538
:1054E800044612D00B79492B09D0483B082B18D811
:1054F800DFE803F008170717171717050700012338
:10550800A37070BD8E680D6975B9A378002BF8D1AA
:10551800638A002BF5D020461D4ABDE87040FFF78E
:10552800EBBBD1E90265EFE7A3783BB3238A0133EC
:105538009BB2012B23820ED1618AD4E90903D1B130
:10554800D3F89C3000229847A36A02220021606A9F
:10555800D3F89C30984729462046FFF7A5FCA36A54
:10556800606A31099B6B9847A36A606AD3F8A030D8
:10557800BDE8704018471B6C9847E5E7638A2946E1
:10558800204601336382BDE87040FFF78DBC00BF41
:105598002E3D06082DE9F041C5680446D1F80C8077
:1055A8000E46AB1C0022D8F808106F1CC3602B46AF
:1055B800FFF7B0FCB1682046FFF776FCA36A3946CE
:1055C800606A9B6E9847A36A2946606A9B6A9847F7
:1055D800A36A606A4FF0FF319B689847D8F80C10AF
:1055E8002046FFF761FCA36A3946606A9B6ABDE8FA
:1055F800F04118472DE9F047C6680446D0F814A0D2
:105608000D46B31C06F10108B0F81A90C360038B6D
:105618008682A0F8168043838868FEF7CBFCF8B929
:10562800E768A8687B1CE360FEF7C7FC20B9A36A9B
:105638004146606A9B6E9847A36A3946606A9B6ACE
:105648009847E9682046FFF72FFCA36A4146606A3D
:105658009B6A98473B460122A9682046FFF75AFCF7
:1056680029692046C4F814A0A4F81A90FFF71CFC76
:10567800A36A3146606A9B6ABDE8F04718472DE97E
:10568800F347C66804460D46731CC3608868FEF776
:1056980091FC0246E8B9E7682046A9687B1CE360EC
:1056A8003B46FFF737FC2046E968FFF7FDFBA86893
:1056B800FEF783FCD8B92B690BB96B6923B1A36AD0
:1056C8003146606A9B6E9847A36A3946606A9B6A4E
:1056D800984701AA712105F110000027FEF7ACFEDA
:1056E80081464F450BD169692046FFF7DDFBA36A68
:1056F8003146606A9B6A984702B0BDE8F087019B13
:1057080053F82780D8F80800FEF754FC024600BB7F
:10571800D4F80CA02046D8F808100AF10103E36079
:105728005346FFF7F7FBD8F80C102046FFF7BCFBF1
:10573800D8F80800FEF741FCD4E909230028D6D19F
:105748009B6E314610469847A36A5146606A9B6A29
:1057580098470137C5E70000184B2DE9F041D3F809
:10576800107204460D463FBBC66801228968731C47
:10577800C3603346FFF7CEFBA36A1F2101225B6992
:10578800606A9847E96851B12046FFF78DFBA36A24
:105798003A460121D3F8B8503B46606AA847A36A45
:1057A8000121606AD3F8C4309847A36A3146606A19
:1057B8009B6ABDE8F0411847BDE8F08190040024D9
:1057C80070B58D6804463DB9836A2946D3F8C4305C
:1057D800606ABDE870401847AB070ED12B795E2B85
:1057E8000BD1A968FFF760FBE9682046FFF75CFB6F
:1057F800A36A0221D3F8C430EAE729462046FFF716
:1058080053FBA36A0121D3F8C430E1E710B504467D
:105818008968FFF749FBA36A606ADB6DBDE8104041
:1058280018470000026A2DE9F04112780446072A59
:1058380004D01B4ABDE8F041FFF75EBA8D685DB938
:10584800836A1021406A1B6B9847A36A606AD3F881
:10585800C030BDE8F041184715F003021DD12B797F
:105868001B2B1AD1C668EF68731CB968C36033462E
:10587800FFF750FBA9682046FFF716FBA36A606A8A
:10588800D3F8C0309847A36A3146606A9B6A984744
:10589800F9682046FFF708FBD7E72946F9E700BF74
:1058A8004C3D06082DE9F0410C46054654F8046FB6
:1058B800360A04EB8607BC4208D1AB6A3146686AEF
:1058C8000022D3F89C30BDE8F041184754F8041F73
:1058D8002846FFF7E9FAEEE78968034610B441B9AC
:1058E800826A406AD2F89C400A4623465DF8044B17
:1058F80018474A68120A022A0BD1CA684AB19407A3
:1059080007D11279AC2A04D106225DF8044BFFF7BF
:10591800ABBB18465DF8044BFFF7C4BF2DE9F04157
:105928000E4605460F46002456F8043F4FEA132852
:10593800444501DBBDE8F08156F8041F2846FFF70F
:10594800B3FA6B683BB10234284657F82410BDE817
:10595800F041FFF745B90134EAE710B50446FFF70F
:10596800DDFF2221A36A606AD3F89830BDE81040B1
:10597800184770B58D68044645B9836A01222946DF
:10598800D3F89C30606ABDE870401847A9071ED15B
:105998006B68DAB2922A1AD11B0A022B0CD1EB6877
:1059A80053B19A0708D11B79AC2B05D1294603229C
:1059B800BDE87040FFF758BB29462046FFF7AEFF09
:1059C8006968A36A0122090AD3F89C30DAE72946F4
:1059D8002046FFF769FAA36A0122D3F89C301146E2
:1059E800D0E7000001F00F03022B2DE9F047054630
:1059F8000C4604D10909BDE8F047FFF73BBA002976
:105A080055D011F0030652D10B792C2B38D1896867
:105A1800FFF74AFAE668002E49D016F0030846D187
:105A280077683346FAB28E2A09D13F0A06F104098B
:105A380007F1FF3AC24510DC013756F827301A79CA
:105A4800312A12D199682846FFF72EFAAB6A686A9C
:105A58000221DB6CBDE8F047184759F8041F2846B7
:105A680008F10108FFF720FAE4E7322A1FD1996804
:105A78000222AB6A686A09091B6DBDE8F04718473E
:105A88002D2B14D18C6894B163681B0A022B06D0A5
:105A9800271D6368B6EB132F10D3BDE8F087E368C2
:105AA800002BF5D09A07F3D11B79AC2BF0D1214606
:105AB8002846064ABDE8F047FFF71EB957F8041F05
:105AC80028460136FFF78EFFE3E700BF583D06087A
